:020000040800F2
:10000000000002206D100008BD100008BD1000089F
:10001000BD100008BD100008BD1000080000000061
:10002000000000000000000000000000BD100008FB
:10003000BD10000800000000BD100008F50E00080B
:10004000BD100008BD100008BD100008BD1000085C
:10005000BD100008BD100008BD100008BD1000084C
:10006000BD100008BD100008BD100008BD1000083C
:10007000BD100008BD100008BD100008BD1000082C
:10008000BD100008BD100008BD100008BD1000081C
:10009000BD100008BD100008BD100008BD1000080C
:1000A000BD100008BD100008BD100008BD100008FC
:1000B000BD100008BD100008BD100008BD100008EC
:1000C000BD100008BD100008BD100008BD100008DC
:1000D000BD100008BD10000879040008BD1000081C
:1000E00031040008BD100008BD100008BD10000854
:1000F000BD100008BD100008BD100008BD100008AC
:10010000BD100008BD100008BD100008BD1000089B
:10011000BD100008BD100008BD100008BD1000088B
:10012000BD100008BD100008BD100008BD1000087B
:10013000BD1000080000000000000000BD10000815
:10014000BD100008BD100008BD100008BD1000085B
:10015000BD100008BD100008BD100008BD1000084B
:10016000BD100008BD100008BD100008BD1000083B
:10017000BD100008BD100008BD1000080000000000
:10018000000000000000000000000000000000006F
:10019000BD1000080000000000000000BD100008B5
:1001A000000000000000000000000000BD1000087A
:1001B000BD100008BD100008BD100008BD100008EB
:0401C000BD10000866
:1001C40010B5054C237833B9044B13B10448AFF38D
:1001D40000800123237010BD5C000020000000009B
:1001E400181A000808B5034B1BB103490348AFF3C1
:1001F400008008BD0000000060000020181A0008FC
:1002040080B483B000AF78600A4A7B685B0952F817
:1002140023107B6803F01F0301229A4005487B6882
:100224005B090A4340F8232000BF0C37BD465DF844
:10023400047B704700E100E080B483B000AF7860D5
:1002440039607B68002B01D100230DE07B681B68BB
:100254003A68D21A7B685B689A4204D37B683A682E
:100264001A60012300E0002318460C37BD465DF8F0
:10027400047B704780B400AF064B1B68054A43F407
:10028400E06343F00503136000BFBD465DF8047BE3
:10029400704700BF003C024080B483B000AF786078
:1002A40039607B681A683B681B685B00032101FAAC
:1002B40003F3DB431A407B681A607B681A683B6867
:1002C40059683B681B685B0001FA03F31A437B68B7
:1002D4001A603B685B68012B03D03B685B68032BA7
:1002E40031D17B689A683B681B685B00032101FA83
:1002F40003F3DB431A407B689A607B689A683B6827
:10030400D9683B681B685B0001FA03F31A437B68F6
:100314009A603B685B69002B0AD07B685A683B682B
:100324001B68012101FA03F31A437B685A600AE04F
:100334007B685A683B681B68012101FA03F3DB43BD
:100344001A407B685A603B685B68032B17D07B6854
:10035400DA683B681B685B00032101FA03F3DB43A3
:100364001A407B68DA607B68DA683B6899683B68A6
:100374001B685B0001FA03F31A437B68DA603B688D
:100384005B68022B36D13B681B68072B18D87B6847
:100394001A6A3B681B689B000F2101FA03F3DB43D5
:1003A4001A407B681A627B681A6A3B6819693B6861
:1003B4001B689B0001FA03F31A437B681A6219E075
:1003C4007B685A6A3B681B68083B9B000F2101FA53
:1003D40003F3DB431A407B685A627B685A6A3B68C2
:1003E40019693B681B68083B9B0001FA03F31A4335
:1003F4007B685A6200BF0C37BD465DF8047B7047CA
:1004040080B483B000AF78600B467B807B685A6908
:100414007B88012101FA03F35A407B685A6100BFCB
:100424000C37BD465DF8047B7047000080B500AF13
:100434000D4B5B6903F40053002B13D000F000FD57
:10044400034619460948FFF7F7FE0346002B03D07D
:1004540005210748FFF7D4FF034B5B69024A43F4C5
:100464000053536100BF80BD003C01409800002050
:100474000000024080B500AF054B1B6803F0200369
:10048400002B02D0034800F039FD00BF80BD00BF3F
:10049400004400407800002080B500AF00F01AF856
:1004A40000F024F800F06AF800F09AF805210748F3
:1004B400FFF7A6FF0F2000F0A5FC054800F016FF8B
:1004C4004FF47A7000F09EFC00BFEFE7000002409A
:1004D400301A000880B500AF00F0D0FB024800F0ED
:1004E400CFFC00BF80BD00BF0024F40080B592B0F3
:1004F40000AF07F1140334220021184600F0D6FFA0
:100504003B4600221A605A609A60DA601A6100F071
:1005140095FB00F0D9F801237B611023BB611823FC
:10052400FB6201233B6304237B63B423BB63022389
:10053400FB6302233B6402237B6407F11403184624
:1005440000F0D2F80346002B01D000F06DF80F2321
:100554003B6002237B600023BB600523FB60042314
:100564003B613B46184600F049FA0346002B01D094
:1005740000F05AF800BF4837BD4680BD80B586B04C
:1005840000AF3B4600221A605A609A60DA601A6132
:100594005A6100F033FB00F041FB05233B6001236B
:1005A4007B6000237B610023BB600023FB603B4630
:1005B40019460948FFF770FE0D233B6000237B605A
:1005C4000023BB603B4619460448FFF765FE00BFA5
:1005D4001837BD4680BD00BF00000240000802403D
:1005E40080B500AF0E4B0F4A1A600D4B4FF4E13249
:1005F4005A600B4B00229A60094B0022DA60084BC8
:1006040000221A61064B0C225A61054B00229A61A2
:10061400034B0022DA61024800F07AFC00BF80BD7F
:10062400780000200044004080B500AF0521044854
:10063400FFF7E6FE4FF4FA7000F0E4FB00BF80BD64
:100644000000024080B588B000AF786007F108036D
:1006540000221A605A609A60DA601A615A617B68F3
:100664001B68174A934227D100F0F8FA00F0C6FA43
:100674000223BB600223FB6000233B6103237B61F5
:100684000023FB610723BB6107F1080319460D48EA
:10069400FFF702FE0323BB600223FB6000233B61E0
:1006A40003237B610023FB610723BB6107F108037C
:1006B40019460448FFF7F0FD00BF2037BD4680BD52
:1006C400004400400000024080B400AF054B1B68AA
:1006D400044A43F44043136000BFBD465DF8047B05
:1006E400704700BF0070004080B584B000AF7860F0
:1006F4007B681B6803F00103002B54D07B685B68A4
:10070400102B19D18F4B1B688E4A43F4803313602E
:1007140000F096FBF86008E000F092FB0246FB68EC
:10072400D31A642B01D9032362E1864B1B6803F4BB
:100734000033002BF0D036E07B685B68122B19D1B4
:10074400804B1B687F4A43F48023136000F078FBDE
:10075400F86008E000F074FB0246FB68D31A642BCF
:1007640001D9032344E1774B1B6803F40033002BC6
:10077400F0D018E0734B1B68724A23F4A023136073
:1007840000F05EFBF86008E000F05AFB0246FB68EC
:10079400D31A642B01D903232AE16A4B1B6803F49F
:1007A4000033002BF0D17B681B6803F00203002B9D
:1007B40036D07B68DB68002B19D1624B1B68614A19
:1007C40043F00103136000F03BFBF86008E000F025
:1007D40037FB0246FB68D31A022B01D9032307E136
:1007E400584B1B6803F00203002BF0D018E0554B64
:1007F4001B68544A23F00103136000F021FBF860E6
:1008040008E000F01DFB0246FB68D31A022B01D955
:100814000323EDE04B4B1B6803F00203002BF0D1E4
:100824007B681B6803F00403002B36D07B689B684D
:10083400002B19D1434B1B6F424A43F0010313674A
:1008440000F0FEFAF86008E000F0FAFA0246FB68ED
:10085400D31A022B01D90323CAE03A4B1B6F03F0CE
:100864000203002BF0D018E0364B1B6F354A23F0FF
:100874000103136700F0E4FAF86008E000F0E0FA1E
:100884000246FB68D31A022B01D90323B0E02D4B97
:100894001B6F03F00203002BF0D17B681B6803F08D
:1008A4000803002B36D07B685B69002B19D1254BDC
:1008B4005B6F244A43F00103536700F0C1FAF86008
:1008C40008E000F0BDFA0246FB68D31A022B01D9F6
:1008D40003238DE01B4B5B6F03F00203002BF0D06E
:1008E40018E0184B5B6F174A23F00103536700F0BD
:1008F400A7FAF86008E000F0A3FA0246FB68D31AEE
:10090400022B01D9032373E00E4B5B6F03F0020348
:10091400002BF0D17B689B69002B68D0094B1B68C6
:10092400084A23F08073136000F08AFAF8600BE041
:1009340000F086FA0246FB68D31A022B04D903237B
:1009440056E000BF003802402B4B1B6803F00073D5
:10095400002BEDD1284B00225A60274B5A687B6844
:10096400DB699B05244913434B60234B5A687B681E
:100974001B6A214913434B601F4B5A687B685B6AAF
:100984009B011D4913434B601B4B5A687B689B6A50
:100994005B08013B1B04184913434B60164B5A6810
:1009A4007B68DB6A1B06144913434B60124B5A687D
:1009B4007B681B6B1B07104913434B600E4B1B6872
:1009C4000D4A43F08073136000F03AFAF86008E0CF
:1009D40000F036FA0246FB68D31A022B01D903232E
:1009E40006E0054B1B6803F00073002BF0D00023D6
:1009F40018461037BD4680BD0038024080B584B02B
:100A040000AF7860FFF736FC224B9B68214A23F045
:100A1400030393601F4B9A687B685B681D4913430B
:100A24008B601C4B9B681B4A23F47C4323F0F0032C
:100A34009360184B9A687B689B6819017B68DB6834
:100A44009B0219437B681B695B030B4311491343E6
:100A54008B6000F0F5F9F8600AE000F0F1F9024665
:100A6400FB68D31A41F28832934201D903230CE084
:100A7400084B9B6803F00C027B685B689B009A42FE
:100A8400EBD1054800F0FCF9002318461037BD46A9
:100A940080BD00BF003802400095BA0A80B489B016
:100AA40000AF394B9B689B0803F00303BB61BB6930
:100AB400032B61D801A252F823F000BFD10A000829
:100AC400D70A0008DD0A00082F0B00082F4BFB6132
:100AD40052E02F4BFB614FE02B4B5B6803F4800328
:100AE400002B01D02A4B00E0284B7B61264B5B682E
:100AF40003F03F033B61244B5B689B09C3F308038A
:100B0400FB60214B5B681B0C03F0030301335B00A8
:100B14007B607A693B69B2FBF3F3FA6803FB02F288
:100B24007B68B2FBF3F3FB6126E0174B5B6803F4CD
:100B34008003002B01D0164B00E0144B7B61124B59
:100B44005B6803F03F033B610F4B5B689B09C3F396
:100B54000803FB600C4B5B681B0F03F00703BB60CF
:100B64007A693B69B2FBF3F3FA6803FB02F2BB68F0
:100B7400B2FBF3F3FB6100BFFB6918462437BD46A3
:100B84005DF8047B704700BF003802400024F40085
:100B940000127A0080B582B000AF0C4B9B689B0AB0
:100BA40003F007037B607B68032B03D8FFF776FF12
:100BB400034606E0FFF772FF02467B68033B22FA16
:100BC40003F318460837BD4680BD00BF0038024015
:100BD40080B582B000AF084B9B685B0B03F0070342
:100BE4007B60FFF75BFF02467B68B2FBF3F31846BA
:100BF4000837BD4680BD00BF0038024080B400AF56
:100C0400054B1B6B044A43F00103136300BFBD464D
:100C14005DF8047B704700BF0038024080B400AF29
:100C2400054B1B6B044A43F00403136300BFBD462A
:100C34005DF8047B704700BF0038024080B400AF09
:100C4400054B1B6C044A43F08053136400BFBD463C
:100C54005DF8047B704700BF0038024080B400AFE9
:100C6400054B1B6C044A43F40033136400BFBD46B8
:100C74005DF8047B704700BF0038024080B400AFC9
:100C8400054B5B6C044A43F48043536400BFBD4688
:100C94005DF8047B704700BF0038024080B586B021
:100CA40000AFF860B9607A6000237B610AE0AFF3BB
:100CB40000800146BB685A1CBA60CAB21A707B69CC
:100CC40001337B617A697B689A42F0DB7B68184662
:100CD4001837BD4680BD80B586B000AFF860B960F6
:100CE4007A6000237B6109E0BB685A1CBA601B78F8
:100CF400184600F094F97B6901337B617A697B685B
:100D04009A42F1DB7B6818461837BD4680BD80B433
:100D140083B000AF78604FF0FF3318460C37BD4600
:100D24005DF8047B704780B483B000AF78603960AD
:100D34003B684FF400525A60002318460C37BD46F6
:100D44005DF8047B704780B483B000AF7860012302
:100D540018460C37BD465DF8047B704780B485B0F7
:100D640000AFF860B9607A60002318461437BD46B6
:100D74005DF8047B7047000080B586B000AF7860F2
:100D8400144A154BD31A7B617B693B61134B1B6877
:100D9400002B02D1114B124A1A60104B1A687B685F
:100DA40013443A699A4207D200F0CEFB03460C2260
:100DB4001A604FF0FF3309E0084B1B68FB60074BD8
:100DC4001A687B681344054A1360FB681846183791
:100DD400BD4680BD0000022000040000A0000020E9
:100DE400F801002080B400AF72B600BFBD465DF8C4
:100DF400047B704780B400AF62B600BFBD465DF8A7
:100E0400047B704780B584B000AF786000F018F8B8
:100E1400B8607B68FB60FB68B3F1FF3F02D0FB68FE
:100E24000133FB6000BF00F00BF80246BB68D31A25
:100E3400FA689A42F7D800BF00BF1037BD4680BD9C
:100E440080B500AFFFF7CEFF044B1B68044A136064
:100E5400FFF7D0FF024B1B68184680BDA40000209A
:100E6400A800002080B400AF044B1B680133034A80
:100E7400136000BFBD465DF8047B7047A4000020EA
:100E840080B582B000AF7860FFF7ACFF164B00224C
:100E94001A607B68154AA2FB03239B09124A013B93
:100EA4005360114B00229A600F4B1B680E4A43F0AB
:100EB400040313600C4B1B680B4A43F002031360DA
:100EC400094B1B68084A43F00103136000BF064B3B
:100ED4001B6803F48033002BF9D0FFF78BFF00BFAE
:100EE4000837BD4680BD00BF10E000E0D34D62105E
:100EF40080B500AFFFF7B6FF00BF80BD80B483B0FC
:100F040000AF786000BF0C37BD465DF8047B7047C6
:100F140080B582B000AF78607868FFF793FB7B6898
:100F24001B687A685269DA607B681B68304A9342AE
:100F340004D07B681B682F4A93420ED1FFF748FE0A
:100F440002467B685B681946104600F055F8034674
:100F54001A467B681B689A600DE0FFF71BFE024689
:100F64007B685B681946104600F046F803461A464B
:100F74007B681B689A607B681B6819697B68DA6800
:100F84007B681B680A431A617B681B68D9687B68A5
:100F94009A687B681B680A43DA607B681B68D968B7
:100FA4007B681A697B681B680A43DA607B681B6884
:100FB40059697B689A697B681B680A435A617B6834
:100FC4001B68D9687B68DA697B681B680A43DA6046
:100FD4007B681B68DA687B681B6842F40052DA603D
:100FE4002620FFF70DF900BF0837BD4680BD00BFBE
:100FF400001001400014014080B483B000AF786059
:1010040039603B685A087B681A443B68B2FBF3F3C7
:101014009BB218460C37BD465DF8047B704780B51B
:1010240082B000AF7860786800F006F87B681846F4
:101034000837BD4680BD000080B483B000AF78603F
:1010440000BF084B1B6803F08003002BF9D07B68BA
:10105400044ADBB2536000BF0C37BD465DF8047B25
:10106400704700BF004400400D488546AFF3008040
:101074000C480D490D4A002302E0D458C4500433EF
:10108400C4188C42F9D30A4A0A4C002301E01360C5
:101094000432A242FBD300F05DFAFFF7FDF9FEE74C
:1010A40000000220000000205C000020481A000814
:1010B4005C000020F8010020FEE70000002310B5CA
:1010C4000446C0E90033C0E9043383608181436688
:1010D400C2818361194608225C3000F0E7F90D4BA8
:1010E40063620D4BA3620D4BE3620D4B23630D4B07
:1010F40024629C4206D003F16802944202D0D033A9
:101104009C4205D104F15800BDE8104000F046BAF5
:1011140010BD00BF01130008231300085B1300086F
:101124007F130008AC000020024A0349034800F082
:1011340069B800BF00000020A118000810000020BA
:1011440041680C4B994210B5044601D000F0A6FB4F
:10115400A168094B994202D0204600F09FFBE16848
:10116400064B994204D02046BDE8104000F096BBDF
:1011740010BD00BFAC000020140100207C01002041
:1011840010B50B4B0B4C0C4A1A602046002204216C
:10119400FFF794FF04F1680001220921FFF78EFF95
:1011A40004F1D0000222BDE810401221FFF786BFEF
:1011B400E4010020AC0000202D110008014800F0DB
:1011C400EEB900BFED010020014800F0E9B900BF0D
:1011D400ED01002010B50446FFF7F0FF236A1BB1B0
:1011E400BDE81040FFF7F0BF044B2362044B1B68BB
:1011F400002BF5D1FFF7C4FFF2E700BF451100084B
:10120400E40100202DE9F8430746884614460026E9
:10121400D4E90195B9F1010905D52468002CF7D169
:101224003046BDE8F883AB89012B07D9B5F90E30F8
:10123400013303D029463846C04706436835E9E7F9
:10124400036A70B5846805460E460BB9FFF7C2FF02
:10125400636EDB0705D4A389980502D4A06D00F062
:101264009EF9A389190702D52369002B35D121469C
:10127400284600F0C5F880B34FF0FF35636EDA07F7
:1012840005D4A3899B0502D4A06D00F089F92846F2
:1012940070BD002B04DAA2699A4217DC0A2915D022
:1012A40023685A1C22601970A36816F8011F013BB9
:1012B400A3600029EDD1002B11DA22460A21284629
:1012C40000F05FF80130D7D00A25D7E72246284638
:1012D40000F057F80130E7D1CEE7013EE4E7236898
:1012E4005A1C22600A221A70EEE70000024B0146E3
:1012F4001868FFF7A5BF00BF0C00002010B50C460E
:10130400B1F90E1000F0FCF80028ABBF636DA3899F
:101314001B1823F48053ACBF6365A38110BD2DE972
:10132400F0411F468B89DB0505460C46164605D55C
:10133400B1F90E100223002200F0D0F8A389B4F909
:101344000E1023F48053A38132463B462846BDE861
:10135400F04100F0E7B810B50C46B1F90E1000F0FA
:10136400BDF8431CA38915BF606523F4805343F47F
:101374008053A38118BFA38110BDB1F90E1000F0F2
:101384009DB8F8B50E461446054618B1036A0BB964
:10139400FFF720FFA369A360A3891A0701D5236976
:1013A40043B92146284600F02BF818B14FF0FF3717
:1013B4003846F8BD23682269981A6369F6B28342F5
:1013C400374605DC2146284600F068FA0028EDD1AE
:1013D400A368013BA36023685A1C22601E706269E3
:1013E400431C9A4204D0A389DB07E1D50A2EDFD13E
:1013F4002146284600F052FA0028D9D0D6E700004A
:1014040038B5294B054618680C4618B1036A0BB960
:10141400FFF7E0FEB4F90C30190722D4DA0607D43A
:1014240009222A6043F04003A3814FF0FF3033E0E8
:10143400580712D5616B41B104F14403994202D0BB
:10144400284600F0AFF800236363A38923F0240344
:10145400A3810023636023692360A38943F0080305
:10146400A38123694BB9A38903F42073B3F5007FE7
:1014740003D02146284600F05FFAB4F90C3013F08B
:1014840001020AD00022A26062695242A26122696A
:1014940042B913F08000C5D138BD990758BF6269BD
:1014A400A260F4E70020F7E70C00002002440346A2
:1014B400934200D1704703F8011BF9E738B5064D94
:1014C4000023044608462B60FFF721FC431C02D18D
:1014D4002B6803B1236038BDE801002038B5074DFF
:1014E40004460846114600222A601A46FFF736FCD5
:1014F400431C02D12B6803B1236038BDE8010020EE
:1015040038B5074D04460846114600222A601A469B
:10151400FFF7C4FB431C02D12B6803B1236038BD21
:10152400E801002038B5074D04460846114600225C
:101534002A601A46FFF7CFFB431C02D12B6803B184
:10154400236038BDE8010020014B1868704700BFD4
:101554000C00002070B50D4D0D4C641BA41000262A
:10156400A64209D10B4D0C4C00F054FA641BA41094
:101574000026A64205D170BD55F8043B98470136B4
:10158400EEE755F8043B98470136F2E7401A0008A5
:10159400401A0008401A0008441A000870477047AF
:1015A4007047000038B50546002941D051F8043C85
:1015B4000C1F002BB8BFE41800F0E0F81D4A1368B4
:1015C40033B9636014602846BDE8384000F0DCB8E5
:1015D400A34208D9206821188B4201BF19685B68AF
:1015E40009182160EDE71A465B680BB1A342FAD9EA
:1015F40011685018A0420BD120680144501883424E
:101604001160E0D118685B68536008441060DAE741
:1016140002D90C232B60D6E7206821188B4204BF23
:1016240019685B68636004BF091821605460CAE7E5
:1016340038BD00BFF401002070B50F4E0C46316870
:10164400054611B900F0D6F930602146284600F06D
:10165400D1F9431C03D14FF0FF34204670BDC41CA4
:1016640024F00304A042F8D0211A284600F0C2F95D
:101674000130F2D1EFE700BFF00100202DE9F8437B
:10168400CD1C25F0030508350C2D38BF0C25002D85
:10169400064601DBA94204D90C2333600020BDE8CF
:1016A400F883DFF8D48000F069F8D8F800301C46DD
:1016B40044BB29463046FFF7BFFF431C044658D1BC
:1016C400D8F800402746002F43D1002C4BD0236884
:1016D4003946304604EB030900F08CF9814542D1C8
:1016E40021686D1A29463046FFF7A6FF01303AD02B
:1016F40023682B442360D8F800305A6862BBC8F8CA
:1017040000700FE02268521B20D40B2A17D96119EC
:10171400A342256018BF5960636808BFC8F8001069
:1017240062514B60304600F02FF804F10B00231D8A
:1017340020F00700C21A1CBF1B1AA350AFE762684F
:10174400A3420CBFC8F800205A60EBE72346646844
:10175400AEE73C467F68B6E71A465B68A342FBD116
:1017640000235360DEE70C233360304600F00CF8AE
:1017740094E70560D6E700BFF40100200148FFF7B5
:101784000EBF00BFEC0100200148FFF709BF00BFF6
:10179400EC010020B1F90C202DE9F04116070546B3
:1017A4000C4654D44B68002B02DC0B6C002B48DD38
:1017B400E66A002E45D0002312F480522F68216A75
:1017C4002B6030D0626DA389590705D56368D21A9E
:1017D400636B0BB1236CD21A0023E66A216A284694
:1017E400B047431CA38906D129681D292BD82A4A4E
:1017F400CA40D60727D500226260D9042269226034
:1018040004D5421C01D12B6803B96065616B2F605C
:10181400B9B104F14403994202D02846FFF7C2FE4D
:10182400002363630DE001232846B0470246501CA1
:10183400C9D12B68002BC6D01D2B01D0162B1ED16D
:101844002F60002022E043F040031BB21BE00F692D
:10185400002FF6D093070E6808BF4B690F6018BFBE
:101864000023A6EB07088B60B8F1000FE9DD216ABD
:10187400A66A43463A462846B047002808DCB4F92D
:101884000C3043F04003A3814FF0FF30BDE8F081FA
:101894000744A8EB0008E7E70100402038B50B69CE
:1018A40005460C4613B90025284638BD18B1036A0D
:1018B4000BB9FFF78FFCB4F90C30002BF3D0626E38
:1018C400D00704D4990502D4A06DFFF768FE28461A
:1018D4002146FFF75FFF636EDA070546E4D4A38968
:1018E4009B05E1D4A06DFFF75BFEDDE770B50C4608
:1018F400B1F90E10002996B015461E460DDAA389DB
:1019040013F0800F4FF0000114BF40234FF48063A5
:10191400002031602B6016B070BD6A4600F048F8B4
:101924000028ECDB019901F47041A1F50053594200
:1019340059414FF48063EBE78B89F7B59D07064661
:101944000C4607D504F14703236023610123636137
:1019540003B0F0BD01AB6A46FFF7C8FF009F054620
:1019640039463046FFF78AFE48B9B4F90C309A0577
:10197400EED423F0030343F00203A381E2E7A38937
:10198400206043F08003A381019BC4E904075BB199
:10199400B4F90E10304600F01DF828B1A38923F0E5
:1019A400030343F00103A381A3891D43A581CFE76A
:1019B40038B5074D00230446084611462B60FFF74F
:1019C400B2F9431C02D12B6803B1236038BD00BFB8
:1019D400E801002038B5064D0023044608462B6074
:1019E400FFF7B1F9431C02D12B6803B1236038BD62
:1019F400E801002038B5064D0023044608462B6054
:101A0400FFF7BAF9431C02D12B6803B1236038BD38
:101A1400E8010020F8B500BFF8BC08BC9E4670473A
:0C1A2400F8B500BFF8BC08BC9E46704737
:101A300048656C6C6F20576F726C642021210D001B
:041A4000E9010008B0
:041A4400C5010008D0
:101A48000000000003000000AC000020100000208F
:101A580000000000AC000020140100207C010020E0
:101A6800000000000000000000000000000000006E
:101A7800000000000000000000000000000000005E
:101A8800000000000000000000000000000000004E
:0C1A980000000000000000000000000042
:040000050800106D72
:00000001FF
